{
  "_format": "hh-sol-artifact-1",
  "contractName": "GolNft",
  "sourceName": "contracts/GolNft.sol",
  "abi": [
    {
      "inputs": [
        {
          "internalType": "address",
          "name": "admin",
          "type": "address"
        }
      ],
      "stateMutability": "nonpayable",
      "type": "constructor"
    },
    {
      "anonymous": false,
      "inputs": [
        {
          "indexed": true,
          "internalType": "address",
          "name": "owner",
          "type": "address"
        },
        {
          "indexed": true,
          "internalType": "address",
          "name": "approved",
          "type": "address"
        },
        {
          "indexed": true,
          "internalType": "uint256",
          "name": "tokenId",
          "type": "uint256"
        }
      ],
      "name": "Approval",
      "type": "event"
    },
    {
      "anonymous": false,
      "inputs": [
        {
          "indexed": true,
          "internalType": "address",
          "name": "owner",
          "type": "address"
        },
        {
          "indexed": true,
          "internalType": "address",
          "name": "operator",
          "type": "address"
        },
        {
          "indexed": false,
          "internalType": "bool",
          "name": "approved",
          "type": "bool"
        }
      ],
      "name": "ApprovalForAll",
      "type": "event"
    },
    {
      "anonymous": false,
      "inputs": [
        {
          "indexed": true,
          "internalType": "bytes32",
          "name": "role",
          "type": "bytes32"
        },
        {
          "indexed": true,
          "internalType": "bytes32",
          "name": "previousAdminRole",
          "type": "bytes32"
        },
        {
          "indexed": true,
          "internalType": "bytes32",
          "name": "newAdminRole",
          "type": "bytes32"
        }
      ],
      "name": "RoleAdminChanged",
      "type": "event"
    },
    {
      "anonymous": false,
      "inputs": [
        {
          "indexed": true,
          "internalType": "bytes32",
          "name": "role",
          "type": "bytes32"
        },
        {
          "indexed": true,
          "internalType": "address",
          "name": "account",
          "type": "address"
        },
        {
          "indexed": true,
          "internalType": "address",
          "name": "sender",
          "type": "address"
        }
      ],
      "name": "RoleGranted",
      "type": "event"
    },
    {
      "anonymous": false,
      "inputs": [
        {
          "indexed": true,
          "internalType": "bytes32",
          "name": "role",
          "type": "bytes32"
        },
        {
          "indexed": true,
          "internalType": "address",
          "name": "account",
          "type": "address"
        },
        {
          "indexed": true,
          "internalType": "address",
          "name": "sender",
          "type": "address"
        }
      ],
      "name": "RoleRevoked",
      "type": "event"
    },
    {
      "anonymous": false,
      "inputs": [
        {
          "indexed": true,
          "internalType": "address",
          "name": "from",
          "type": "address"
        },
        {
          "indexed": true,
          "internalType": "address",
          "name": "to",
          "type": "address"
        },
        {
          "indexed": true,
          "internalType": "uint256",
          "name": "tokenId",
          "type": "uint256"
        }
      ],
      "name": "Transfer",
      "type": "event"
    },
    {
      "inputs": [],
      "name": "ADMIN_CONTRACT",
      "outputs": [
        {
          "internalType": "bytes32",
          "name": "",
          "type": "bytes32"
        }
      ],
      "stateMutability": "view",
      "type": "function"
    },
    {
      "inputs": [],
      "name": "DEFAULT_ADMIN_ROLE",
      "outputs": [
        {
          "internalType": "bytes32",
          "name": "",
          "type": "bytes32"
        }
      ],
      "stateMutability": "view",
      "type": "function"
    },
    {
      "inputs": [],
      "name": "MINTER_ROLE",
      "outputs": [
        {
          "internalType": "bytes32",
          "name": "",
          "type": "bytes32"
        }
      ],
      "stateMutability": "view",
      "type": "function"
    },
    {
      "inputs": [
        {
          "internalType": "address",
          "name": "to",
          "type": "address"
        },
        {
          "internalType": "uint256",
          "name": "tokenId",
          "type": "uint256"
        }
      ],
      "name": "approve",
      "outputs": [],
      "stateMutability": "nonpayable",
      "type": "function"
    },
    {
      "inputs": [
        {
          "internalType": "address",
          "name": "owner",
          "type": "address"
        }
      ],
      "name": "balanceOf",
      "outputs": [
        {
          "internalType": "uint256",
          "name": "",
          "type": "uint256"
        }
      ],
      "stateMutability": "view",
      "type": "function"
    },
    {
      "inputs": [
        {
          "internalType": "uint256",
          "name": "tokenId",
          "type": "uint256"
        }
      ],
      "name": "burn",
      "outputs": [],
      "stateMutability": "nonpayable",
      "type": "function"
    },
    {
      "inputs": [
        {
          "internalType": "uint256",
          "name": "tokenId",
          "type": "uint256"
        }
      ],
      "name": "exists",
      "outputs": [
        {
          "internalType": "bool",
          "name": "",
          "type": "bool"
        }
      ],
      "stateMutability": "view",
      "type": "function"
    },
    {
      "inputs": [
        {
          "internalType": "uint256",
          "name": "tokenId",
          "type": "uint256"
        }
      ],
      "name": "getApproved",
      "outputs": [
        {
          "internalType": "address",
          "name": "",
          "type": "address"
        }
      ],
      "stateMutability": "view",
      "type": "function"
    },
    {
      "inputs": [
        {
          "internalType": "bytes32",
          "name": "role",
          "type": "bytes32"
        }
      ],
      "name": "getRoleAdmin",
      "outputs": [
        {
          "internalType": "bytes32",
          "name": "",
          "type": "bytes32"
        }
      ],
      "stateMutability": "view",
      "type": "function"
    },
    {
      "inputs": [
        {
          "internalType": "address",
          "name": "to",
          "type": "address"
        }
      ],
      "name": "getTokenIdListForAddress",
      "outputs": [
        {
          "internalType": "uint256[]",
          "name": "",
          "type": "uint256[]"
        }
      ],
      "stateMutability": "view",
      "type": "function"
    },
    {
      "inputs": [
        {
          "internalType": "bytes32",
          "name": "role",
          "type": "bytes32"
        },
        {
          "internalType": "address",
          "name": "account",
          "type": "address"
        }
      ],
      "name": "grantRole",
      "outputs": [],
      "stateMutability": "nonpayable",
      "type": "function"
    },
    {
      "inputs": [
        {
          "internalType": "bytes32",
          "name": "role",
          "type": "bytes32"
        },
        {
          "internalType": "address",
          "name": "account",
          "type": "address"
        }
      ],
      "name": "hasRole",
      "outputs": [
        {
          "internalType": "bool",
          "name": "",
          "type": "bool"
        }
      ],
      "stateMutability": "view",
      "type": "function"
    },
    {
      "inputs": [
        {
          "internalType": "address",
          "name": "owner",
          "type": "address"
        },
        {
          "internalType": "address",
          "name": "operator",
          "type": "address"
        }
      ],
      "name": "isApprovedForAll",
      "outputs": [
        {
          "internalType": "bool",
          "name": "",
          "type": "bool"
        }
      ],
      "stateMutability": "view",
      "type": "function"
    },
    {
      "inputs": [],
      "name": "name",
      "outputs": [
        {
          "internalType": "string",
          "name": "",
          "type": "string"
        }
      ],
      "stateMutability": "view",
      "type": "function"
    },
    {
      "inputs": [
        {
          "internalType": "uint256",
          "name": "tokenId",
          "type": "uint256"
        }
      ],
      "name": "ownerOf",
      "outputs": [
        {
          "internalType": "address",
          "name": "",
          "type": "address"
        }
      ],
      "stateMutability": "view",
      "type": "function"
    },
    {
      "inputs": [
        {
          "internalType": "bytes32",
          "name": "role",
          "type": "bytes32"
        },
        {
          "internalType": "address",
          "name": "account",
          "type": "address"
        }
      ],
      "name": "renounceRole",
      "outputs": [],
      "stateMutability": "nonpayable",
      "type": "function"
    },
    {
      "inputs": [
        {
          "internalType": "bytes32",
          "name": "role",
          "type": "bytes32"
        },
        {
          "internalType": "address",
          "name": "account",
          "type": "address"
        }
      ],
      "name": "revokeRole",
      "outputs": [],
      "stateMutability": "nonpayable",
      "type": "function"
    },
    {
      "inputs": [
        {
          "internalType": "address",
          "name": "to",
          "type": "address"
        }
      ],
      "name": "safeMint",
      "outputs": [],
      "stateMutability": "nonpayable",
      "type": "function"
    },
    {
      "inputs": [
        {
          "internalType": "address",
          "name": "from",
          "type": "address"
        },
        {
          "internalType": "address",
          "name": "to",
          "type": "address"
        },
        {
          "internalType": "uint256",
          "name": "tokenId",
          "type": "uint256"
        }
      ],
      "name": "safeTransferFrom",
      "outputs": [],
      "stateMutability": "nonpayable",
      "type": "function"
    },
    {
      "inputs": [
        {
          "internalType": "address",
          "name": "from",
          "type": "address"
        },
        {
          "internalType": "address",
          "name": "to",
          "type": "address"
        },
        {
          "internalType": "uint256",
          "name": "tokenId",
          "type": "uint256"
        },
        {
          "internalType": "bytes",
          "name": "data",
          "type": "bytes"
        }
      ],
      "name": "safeTransferFrom",
      "outputs": [],
      "stateMutability": "nonpayable",
      "type": "function"
    },
    {
      "inputs": [
        {
          "internalType": "address",
          "name": "operator",
          "type": "address"
        },
        {
          "internalType": "bool",
          "name": "approved",
          "type": "bool"
        }
      ],
      "name": "setApprovalForAll",
      "outputs": [],
      "stateMutability": "nonpayable",
      "type": "function"
    },
    {
      "inputs": [
        {
          "internalType": "bytes4",
          "name": "interfaceId",
          "type": "bytes4"
        }
      ],
      "name": "supportsInterface",
      "outputs": [
        {
          "internalType": "bool",
          "name": "",
          "type": "bool"
        }
      ],
      "stateMutability": "view",
      "type": "function"
    },
    {
      "inputs": [],
      "name": "symbol",
      "outputs": [
        {
          "internalType": "string",
          "name": "",
          "type": "string"
        }
      ],
      "stateMutability": "view",
      "type": "function"
    },
    {
      "inputs": [
        {
          "internalType": "uint256",
          "name": "tokenId",
          "type": "uint256"
        }
      ],
      "name": "tokenURI",
      "outputs": [
        {
          "internalType": "string",
          "name": "",
          "type": "string"
        }
      ],
      "stateMutability": "view",
      "type": "function"
    },
    {
      "inputs": [
        {
          "internalType": "address",
          "name": "from",
          "type": "address"
        },
        {
          "internalType": "address",
          "name": "to",
          "type": "address"
        },
        {
          "internalType": "uint256",
          "name": "tokenId",
          "type": "uint256"
        }
      ],
      "name": "transferFrom",
      "outputs": [],
      "stateMutability": "nonpayable",
      "type": "function"
    }
  ],
  "bytecode": "0x60806040523480156200001157600080fd5b50604051620022a9380380620022a9833981016040819052620000349162000257565b604080518082018252600881526723b7b62a37b5b2b760c11b60208083019182528351808501909452600384526211d3d360ea1b9084015281519192916200007f91600091620001b1565b50805162000095906001906020840190620001b1565b505050620000ca7fd2894774da179ba37f778fbe0314eb40167d2c75f7bcf42aac87fa249e03b09c82620000fd60201b60201c565b620000f67f9f2df0fed2c77648de5860a4cc508cd0818c85b8b8a1ab4ceeef8d981c8956a6336200010d565b50620002c5565b6200010982826200010d565b5050565b60008281526006602090815260408083206001600160a01b038516845290915290205460ff16620001095760008281526006602090815260408083206001600160a01b03851684529091529020805460ff191660011790556200016d3390565b6001600160a01b0316816001600160a01b0316837f2f8788117e7eff1d82e926ec794901d17c78024a50270940304540a733656f0d60405160405180910390a45050565b828054620001bf9062000289565b90600052602060002090601f016020900481019282620001e357600085556200022e565b82601f10620001fe57805160ff19168380011785556200022e565b828001600101855582156200022e579182015b828111156200022e57825182559160200191906001019062000211565b506200023c92915062000240565b5090565b5b808211156200023c576000815560010162000241565b6000602082840312156200026a57600080fd5b81516001600160a01b03811681146200028257600080fd5b9392505050565b600181811c908216806200029e57607f821691505b602082108103620002bf57634e487b7160e01b600052602260045260246000fd5b50919050565b611fd480620002d56000396000f3fe608060405234801561001057600080fd5b50600436106101a35760003560e01c80634f558e79116100ee578063a22cb46511610097578063d539139311610071578063d5391393146103aa578063d547741f146103d1578063de670125146103e4578063e985e9c51461040457600080fd5b8063a22cb46514610371578063b88d4fde14610384578063c87b56dd1461039757600080fd5b806391d14854116100c857806391d148541461032857806395d89b4114610361578063a217fddf1461036957600080fd5b80634f558e79146102ef5780636352211e1461030257806370a082311461031557600080fd5b8063248a9ca31161015057806340d097c31161012a57806340d097c3146102b657806342842e0e146102c957806342966c68146102dc57600080fd5b8063248a9ca31461026d5780632f2ff15d1461029057806336568abe146102a357600080fd5b8063095ea7b311610181578063095ea7b3146102105780631e7c27cb1461022557806323b872dd1461025a57600080fd5b806301ffc9a7146101a857806306fdde03146101d0578063081812fc146101e5575b600080fd5b6101bb6101b6366004611ac4565b610440565b60405190151581526020015b60405180910390f35b6101d8610451565b6040516101c79190611b39565b6101f86101f3366004611b4c565b6104e3565b6040516001600160a01b0390911681526020016101c7565b61022361021e366004611b81565b61050a565b005b61024c7fd2894774da179ba37f778fbe0314eb40167d2c75f7bcf42aac87fa249e03b09c81565b6040519081526020016101c7565b610223610268366004611bab565b610640565b61024c61027b366004611b4c565b60009081526006602052604090206001015490565b61022361029e366004611be7565b6106b7565b6102236102b1366004611be7565b6106dc565b6102236102c4366004611c13565b610768565b6102236102d7366004611bab565b6107db565b6102236102ea366004611b4c565b6107f6565b6101bb6102fd366004611b4c565b610829565b6101f8610310366004611b4c565b610848565b61024c610323366004611c13565b6108ad565b6101bb610336366004611be7565b60009182526006602090815260408084206001600160a01b0393909316845291905290205460ff1690565b6101d8610947565b61024c600081565b61022361037f366004611c2e565b610956565b610223610392366004611c80565b610961565b6101d86103a5366004611b4c565b6109df565b61024c7f9f2df0fed2c77648de5860a4cc508cd0818c85b8b8a1ab4ceeef8d981c8956a681565b6102236103df366004611be7565b610a53565b6103f76103f2366004611c13565b610a78565b6040516101c79190611d5c565b6101bb610412366004611da0565b6001600160a01b03918216600090815260056020908152604080832093909416825291909152205460ff1690565b600061044b82610b3a565b92915050565b60606000805461046090611dca565b80601f016020809104026020016040519081016040528092919081815260200182805461048c90611dca565b80156104d95780601f106104ae576101008083540402835291602001916104d9565b820191906000526020600020905b8154815290600101906020018083116104bc57829003601f168201915b5050505050905090565b60006104ee82610b78565b506000908152600460205260409020546001600160a01b031690565b600061051582610848565b9050806001600160a01b0316836001600160a01b0316036105a35760405162461bcd60e51b815260206004820152602160248201527f4552433732313a20617070726f76616c20746f2063757272656e74206f776e6560448201527f720000000000000000000000000000000000000000000000000000000000000060648201526084015b60405180910390fd5b336001600160a01b03821614806105bf57506105bf8133610412565b6106315760405162461bcd60e51b815260206004820152603d60248201527f4552433732313a20617070726f76652063616c6c6572206973206e6f7420746f60448201527f6b656e206f776e6572206f7220617070726f76656420666f7220616c6c000000606482015260840161059a565b61063b8383610bdf565b505050565b61064a3382610c5a565b6106ac5760405162461bcd60e51b815260206004820152602d60248201527f4552433732313a2063616c6c6572206973206e6f7420746f6b656e206f776e6560448201526c1c881bdc88185c1c1c9bdd9959609a1b606482015260840161059a565b61063b838383610cd9565b6000828152600660205260409020600101546106d281610eec565b61063b8383610ef6565b6001600160a01b038116331461075a5760405162461bcd60e51b815260206004820152602f60248201527f416363657373436f6e74726f6c3a2063616e206f6e6c792072656e6f756e636560448201527f20726f6c657320666f722073656c660000000000000000000000000000000000606482015260840161059a565b6107648282610f98565b5050565b7f9f2df0fed2c77648de5860a4cc508cd0818c85b8b8a1ab4ceeef8d981c8956a661079281610eec565b600061079d60075490565b90506107ad600780546001019055565b6107b7838261101b565b33600090815260086020908152604082208054600181018255908352912001555050565b61063b83838360405180602001604052806000815250610961565b7fd2894774da179ba37f778fbe0314eb40167d2c75f7bcf42aac87fa249e03b09c61082081610eec565b61076482611035565b6000818152600260205260408120546001600160a01b0316151561044b565b6000818152600260205260408120546001600160a01b03168061044b5760405162461bcd60e51b815260206004820152601860248201527f4552433732313a20696e76616c696420746f6b656e2049440000000000000000604482015260640161059a565b60006001600160a01b03821661092b5760405162461bcd60e51b815260206004820152602960248201527f4552433732313a2061646472657373207a65726f206973206e6f74206120766160448201527f6c6964206f776e65720000000000000000000000000000000000000000000000606482015260840161059a565b506001600160a01b031660009081526003602052604090205490565b60606001805461046090611dca565b6107643383836110e5565b61096b3383610c5a565b6109cd5760405162461bcd60e51b815260206004820152602d60248201527f4552433732313a2063616c6c6572206973206e6f7420746f6b656e206f776e6560448201526c1c881bdc88185c1c1c9bdd9959609a1b606482015260840161059a565b6109d9848484846111b3565b50505050565b60606109ea82610b78565b6000610a0160408051602081019091526000815290565b90506000815111610a215760405180602001604052806000815250610a4c565b80610a2b84611231565b604051602001610a3c929190611e04565b6040516020818303038152906040525b9392505050565b600082815260066020526040902060010154610a6e81610eec565b61063b8383610f98565b60606001600160a01b038216610ad05760405162461bcd60e51b815260206004820152600f60248201527f696e76616c696420616464726573730000000000000000000000000000000000604482015260640161059a565b6001600160a01b03821660009081526008602090815260409182902080548351818402810184019094528084529091830182828015610b2e57602002820191906000526020600020905b815481526020019060010190808311610b1a575b50505050509050919050565b60006001600160e01b031982167f7965db0b00000000000000000000000000000000000000000000000000000000148061044b575061044b826112d1565b6000818152600260205260409020546001600160a01b0316610bdc5760405162461bcd60e51b815260206004820152601860248201527f4552433732313a20696e76616c696420746f6b656e2049440000000000000000604482015260640161059a565b50565b6000818152600460205260409020805473ffffffffffffffffffffffffffffffffffffffff19166001600160a01b0384169081179091558190610c2182610848565b6001600160a01b03167f8c5be1e5ebec7d5bd14f71427d1e84f3dd0314c0f7b2291e5b200ac8c7c3b92560405160405180910390a45050565b600080610c6683610848565b9050806001600160a01b0316846001600160a01b03161480610cad57506001600160a01b0380821660009081526005602090815260408083209388168352929052205460ff165b80610cd15750836001600160a01b0316610cc6846104e3565b6001600160a01b0316145b949350505050565b826001600160a01b0316610cec82610848565b6001600160a01b031614610d505760405162461bcd60e51b815260206004820152602560248201527f4552433732313a207472616e736665722066726f6d20696e636f72726563742060448201526437bbb732b960d91b606482015260840161059a565b6001600160a01b038216610dcb5760405162461bcd60e51b8152602060048201526024808201527f4552433732313a207472616e7366657220746f20746865207a65726f2061646460448201527f7265737300000000000000000000000000000000000000000000000000000000606482015260840161059a565b610dd8838383600161136c565b826001600160a01b0316610deb82610848565b6001600160a01b031614610e4f5760405162461bcd60e51b815260206004820152602560248201527f4552433732313a207472616e736665722066726f6d20696e636f72726563742060448201526437bbb732b960d91b606482015260840161059a565b6000818152600460209081526040808320805473ffffffffffffffffffffffffffffffffffffffff199081169091556001600160a01b0387811680865260038552838620805460001901905590871680865283862080546001019055868652600290945282852080549092168417909155905184937fddf252ad1be2c89b69c2b068fc378daa952ba7f163c4a11628f55a4df523b3ef91a4505050565b610bdc81336113f4565b60008281526006602090815260408083206001600160a01b038516845290915290205460ff166107645760008281526006602090815260408083206001600160a01b03851684529091529020805460ff19166001179055610f543390565b6001600160a01b0316816001600160a01b0316837f2f8788117e7eff1d82e926ec794901d17c78024a50270940304540a733656f0d60405160405180910390a45050565b60008281526006602090815260408083206001600160a01b038516845290915290205460ff16156107645760008281526006602090815260408083206001600160a01b0385168085529252808320805460ff1916905551339285917ff6391f5c32d9c69d2a47ea670b442974b53935d1edc7fd64eb21e047a839171b9190a45050565b610764828260405180602001604052806000815250611469565b600061104082610848565b905061105081600084600161136c565b61105982610848565b6000838152600460209081526040808320805473ffffffffffffffffffffffffffffffffffffffff199081169091556001600160a01b0385168085526003845282852080546000190190558785526002909352818420805490911690555192935084927fddf252ad1be2c89b69c2b068fc378daa952ba7f163c4a11628f55a4df523b3ef908390a45050565b816001600160a01b0316836001600160a01b0316036111465760405162461bcd60e51b815260206004820152601960248201527f4552433732313a20617070726f766520746f2063616c6c657200000000000000604482015260640161059a565b6001600160a01b03838116600081815260056020908152604080832094871680845294825291829020805460ff191686151590811790915591519182527f17307eab39ab6107e8899845ad3d59bd9653f200f220920489ca2b5937696c31910160405180910390a3505050565b6111be848484610cd9565b6111ca848484846114e7565b6109d95760405162461bcd60e51b815260206004820152603260248201527f4552433732313a207472616e7366657220746f206e6f6e20455243373231526560448201527131b2b4bb32b91034b6b83632b6b2b73a32b960711b606482015260840161059a565b6060600061123e83611633565b600101905060008167ffffffffffffffff81111561125e5761125e611c6a565b6040519080825280601f01601f191660200182016040528015611288576020820181803683370190505b5090508181016020015b600019017f3031323334353637383961626364656600000000000000000000000000000000600a86061a8153600a850494508461129257509392505050565b60006001600160e01b031982167f80ac58cd00000000000000000000000000000000000000000000000000000000148061133457506001600160e01b031982167f5b5e139f00000000000000000000000000000000000000000000000000000000145b8061044b57507f01ffc9a7000000000000000000000000000000000000000000000000000000006001600160e01b031983161461044b565b60018111156109d9576001600160a01b038416156113b2576001600160a01b038416600090815260036020526040812080548392906113ac908490611e49565b90915550505b6001600160a01b038316156109d9576001600160a01b038316600090815260036020526040812080548392906113e9908490611e60565b909155505050505050565b60008281526006602090815260408083206001600160a01b038516845290915290205460ff166107645761142781611715565b611432836020611727565b604051602001611443929190611e78565b60408051601f198184030181529082905262461bcd60e51b825261059a91600401611b39565b6114738383611908565b61148060008484846114e7565b61063b5760405162461bcd60e51b815260206004820152603260248201527f4552433732313a207472616e7366657220746f206e6f6e20455243373231526560448201527131b2b4bb32b91034b6b83632b6b2b73a32b960711b606482015260840161059a565b60006001600160a01b0384163b1561162857604051630a85bd0160e11b81526001600160a01b0385169063150b7a029061152b903390899088908890600401611ef9565b6020604051808303816000875af1925050508015611566575060408051601f3d908101601f1916820190925261156391810190611f35565b60015b61160e573d808015611594576040519150601f19603f3d011682016040523d82523d6000602084013e611599565b606091505b5080516000036116065760405162461bcd60e51b815260206004820152603260248201527f4552433732313a207472616e7366657220746f206e6f6e20455243373231526560448201527131b2b4bb32b91034b6b83632b6b2b73a32b960711b606482015260840161059a565b805181602001fd5b6001600160e01b031916630a85bd0160e11b149050610cd1565b506001949350505050565b6000807a184f03e93ff9f4daa797ed6e38ed64bf6a1f010000000000000000831061167c577a184f03e93ff9f4daa797ed6e38ed64bf6a1f010000000000000000830492506040015b6d04ee2d6d415b85acef810000000083106116a8576d04ee2d6d415b85acef8100000000830492506020015b662386f26fc1000083106116c657662386f26fc10000830492506010015b6305f5e10083106116de576305f5e100830492506008015b61271083106116f257612710830492506004015b60648310611704576064830492506002015b600a831061044b5760010192915050565b606061044b6001600160a01b03831660145b60606000611736836002611f52565b611741906002611e60565b67ffffffffffffffff81111561175957611759611c6a565b6040519080825280601f01601f191660200182016040528015611783576020820181803683370190505b5090507f3000000000000000000000000000000000000000000000000000000000000000816000815181106117ba576117ba611f71565b60200101906001600160f81b031916908160001a9053507f78000000000000000000000000000000000000000000000000000000000000008160018151811061180557611805611f71565b60200101906001600160f81b031916908160001a9053506000611829846002611f52565b611834906001611e60565b90505b60018111156118b9577f303132333435363738396162636465660000000000000000000000000000000085600f166010811061187557611875611f71565b1a60f81b82828151811061188b5761188b611f71565b60200101906001600160f81b031916908160001a90535060049490941c936118b281611f87565b9050611837565b508315610a4c5760405162461bcd60e51b815260206004820181905260248201527f537472696e67733a20686578206c656e67746820696e73756666696369656e74604482015260640161059a565b6001600160a01b03821661195e5760405162461bcd60e51b815260206004820181905260248201527f4552433732313a206d696e7420746f20746865207a65726f2061646472657373604482015260640161059a565b6000818152600260205260409020546001600160a01b0316156119c35760405162461bcd60e51b815260206004820152601c60248201527f4552433732313a20746f6b656e20616c7265616479206d696e74656400000000604482015260640161059a565b6119d160008383600161136c565b6000818152600260205260409020546001600160a01b031615611a365760405162461bcd60e51b815260206004820152601c60248201527f4552433732313a20746f6b656e20616c7265616479206d696e74656400000000604482015260640161059a565b6001600160a01b0382166000818152600360209081526040808320805460010190558483526002909152808220805473ffffffffffffffffffffffffffffffffffffffff19168417905551839291907fddf252ad1be2c89b69c2b068fc378daa952ba7f163c4a11628f55a4df523b3ef908290a45050565b6001600160e01b031981168114610bdc57600080fd5b600060208284031215611ad657600080fd5b8135610a4c81611aae565b60005b83811015611afc578181015183820152602001611ae4565b838111156109d95750506000910152565b60008151808452611b25816020860160208601611ae1565b601f01601f19169290920160200192915050565b602081526000610a4c6020830184611b0d565b600060208284031215611b5e57600080fd5b5035919050565b80356001600160a01b0381168114611b7c57600080fd5b919050565b60008060408385031215611b9457600080fd5b611b9d83611b65565b946020939093013593505050565b600080600060608486031215611bc057600080fd5b611bc984611b65565b9250611bd760208501611b65565b9150604084013590509250925092565b60008060408385031215611bfa57600080fd5b82359150611c0a60208401611b65565b90509250929050565b600060208284031215611c2557600080fd5b610a4c82611b65565b60008060408385031215611c4157600080fd5b611c4a83611b65565b915060208301358015158114611c5f57600080fd5b809150509250929050565b634e487b7160e01b600052604160045260246000fd5b60008060008060808587031215611c9657600080fd5b611c9f85611b65565b9350611cad60208601611b65565b925060408501359150606085013567ffffffffffffffff80821115611cd157600080fd5b818701915087601f830112611ce557600080fd5b813581811115611cf757611cf7611c6a565b604051601f8201601f19908116603f01168101908382118183101715611d1f57611d1f611c6a565b816040528281528a6020848701011115611d3857600080fd5b82602086016020830137600060208483010152809550505050505092959194509250565b6020808252825182820181905260009190848201906040850190845b81811015611d9457835183529284019291840191600101611d78565b50909695505050505050565b60008060408385031215611db357600080fd5b611dbc83611b65565b9150611c0a60208401611b65565b600181811c90821680611dde57607f821691505b602082108103611dfe57634e487b7160e01b600052602260045260246000fd5b50919050565b60008351611e16818460208801611ae1565b835190830190611e2a818360208801611ae1565b01949350505050565b634e487b7160e01b600052601160045260246000fd5b600082821015611e5b57611e5b611e33565b500390565b60008219821115611e7357611e73611e33565b500190565b7f416363657373436f6e74726f6c3a206163636f756e7420000000000000000000815260008351611eb0816017850160208801611ae1565b7f206973206d697373696e6720726f6c65200000000000000000000000000000006017918401918201528351611eed816028840160208801611ae1565b01602801949350505050565b60006001600160a01b03808716835280861660208401525083604083015260806060830152611f2b6080830184611b0d565b9695505050505050565b600060208284031215611f4757600080fd5b8151610a4c81611aae565b6000816000190483118215151615611f6c57611f6c611e33565b500290565b634e487b7160e01b600052603260045260246000fd5b600081611f9657611f96611e33565b50600019019056fea2646970667358221220994e6e9719d0198dba0d603f3c6fb1cc257c301ce21b4a8ee28a379df2965ed564736f6c634300080d0033",
  "linkReferences": {},
  "deployedLinkReferences": {}
}